{
  "_format": "hh-sol-artifact-1",
  "contractName": "Mint",
  "sourceName": "contracts/Mint.sol",
  "abi": [
    {
      "inputs": [],
      "stateMutability": "nonpayable",
      "type": "constructor"
    },
    {
      "anonymous": false,
      "inputs": [
        {
          "indexed": true,
          "internalType": "address",
          "name": "owner",
          "type": "address"
        },
        {
          "indexed": true,
          "internalType": "address",
          "name": "approved",
          "type": "address"
        },
        {
          "indexed": true,
          "internalType": "uint256",
          "name": "tokenId",
          "type": "uint256"
        }
      ],
      "name": "Approval",
      "type": "event"
    },
    {
      "anonymous": false,
      "inputs": [
        {
          "indexed": true,
          "internalType": "address",
          "name": "owner",
          "type": "address"
        },
        {
          "indexed": true,
          "internalType": "address",
          "name": "operator",
          "type": "address"
        },
        {
          "indexed": false,
          "internalType": "bool",
          "name": "approved",
          "type": "bool"
        }
      ],
      "name": "ApprovalForAll",
      "type": "event"
    },
    {
      "anonymous": false,
      "inputs": [
        {
          "indexed": true,
          "internalType": "address",
          "name": "from",
          "type": "address"
        },
        {
          "indexed": true,
          "internalType": "address",
          "name": "to",
          "type": "address"
        },
        {
          "indexed": true,
          "internalType": "uint256",
          "name": "tokenId",
          "type": "uint256"
        }
      ],
      "name": "Transfer",
      "type": "event"
    },
    {
      "inputs": [
        {
          "internalType": "address",
          "name": "to",
          "type": "address"
        },
        {
          "internalType": "uint256",
          "name": "tokenId",
          "type": "uint256"
        }
      ],
      "name": "approve",
      "outputs": [],
      "stateMutability": "nonpayable",
      "type": "function"
    },
    {
      "inputs": [
        {
          "internalType": "address",
          "name": "owner",
          "type": "address"
        }
      ],
      "name": "balanceOf",
      "outputs": [
        {
          "internalType": "uint256",
          "name": "",
          "type": "uint256"
        }
      ],
      "stateMutability": "view",
      "type": "function"
    },
    {
      "inputs": [
        {
          "internalType": "uint256",
          "name": "tokenId",
          "type": "uint256"
        }
      ],
      "name": "getApproved",
      "outputs": [
        {
          "internalType": "address",
          "name": "",
          "type": "address"
        }
      ],
      "stateMutability": "view",
      "type": "function"
    },
    {
      "inputs": [
        {
          "internalType": "address",
          "name": "owner",
          "type": "address"
        },
        {
          "internalType": "address",
          "name": "operator",
          "type": "address"
        }
      ],
      "name": "isApprovedForAll",
      "outputs": [
        {
          "internalType": "bool",
          "name": "",
          "type": "bool"
        }
      ],
      "stateMutability": "view",
      "type": "function"
    },
    {
      "inputs": [
        {
          "internalType": "address",
          "name": "to",
          "type": "address"
        },
        {
          "internalType": "string",
          "name": "prompt",
          "type": "string"
        },
        {
          "internalType": "string",
          "name": "image",
          "type": "string"
        }
      ],
      "name": "mint",
      "outputs": [],
      "stateMutability": "nonpayable",
      "type": "function"
    },
    {
      "inputs": [],
      "name": "name",
      "outputs": [
        {
          "internalType": "string",
          "name": "",
          "type": "string"
        }
      ],
      "stateMutability": "view",
      "type": "function"
    },
    {
      "inputs": [
        {
          "internalType": "uint256",
          "name": "tokenId",
          "type": "uint256"
        }
      ],
      "name": "ownerOf",
      "outputs": [
        {
          "internalType": "address",
          "name": "",
          "type": "address"
        }
      ],
      "stateMutability": "view",
      "type": "function"
    },
    {
      "inputs": [
        {
          "internalType": "address",
          "name": "from",
          "type": "address"
        },
        {
          "internalType": "address",
          "name": "to",
          "type": "address"
        },
        {
          "internalType": "uint256",
          "name": "tokenId",
          "type": "uint256"
        }
      ],
      "name": "safeTransferFrom",
      "outputs": [],
      "stateMutability": "nonpayable",
      "type": "function"
    },
    {
      "inputs": [
        {
          "internalType": "address",
          "name": "from",
          "type": "address"
        },
        {
          "internalType": "address",
          "name": "to",
          "type": "address"
        },
        {
          "internalType": "uint256",
          "name": "tokenId",
          "type": "uint256"
        },
        {
          "internalType": "bytes",
          "name": "data",
          "type": "bytes"
        }
      ],
      "name": "safeTransferFrom",
      "outputs": [],
      "stateMutability": "nonpayable",
      "type": "function"
    },
    {
      "inputs": [
        {
          "internalType": "address",
          "name": "operator",
          "type": "address"
        },
        {
          "internalType": "bool",
          "name": "approved",
          "type": "bool"
        }
      ],
      "name": "setApprovalForAll",
      "outputs": [],
      "stateMutability": "nonpayable",
      "type": "function"
    },
    {
      "inputs": [
        {
          "internalType": "bytes4",
          "name": "interfaceId",
          "type": "bytes4"
        }
      ],
      "name": "supportsInterface",
      "outputs": [
        {
          "internalType": "bool",
          "name": "",
          "type": "bool"
        }
      ],
      "stateMutability": "view",
      "type": "function"
    },
    {
      "inputs": [],
      "name": "symbol",
      "outputs": [
        {
          "internalType": "string",
          "name": "",
          "type": "string"
        }
      ],
      "stateMutability": "view",
      "type": "function"
    },
    {
      "inputs": [
        {
          "internalType": "uint256",
          "name": "tokenId",
          "type": "uint256"
        }
      ],
      "name": "tokenURI",
      "outputs": [
        {
          "internalType": "string",
          "name": "",
          "type": "string"
        }
      ],
      "stateMutability": "view",
      "type": "function"
    },
    {
      "inputs": [
        {
          "internalType": "address",
          "name": "from",
          "type": "address"
        },
        {
          "internalType": "address",
          "name": "to",
          "type": "address"
        },
        {
          "internalType": "uint256",
          "name": "tokenId",
          "type": "uint256"
        }
      ],
      "name": "transferFrom",
      "outputs": [],
      "stateMutability": "nonpayable",
      "type": "function"
    }
  ],
  "bytecode": "0x60806040523480156200001157600080fd5b5060405180604001604052806004815260200163135a5b9d60e21b815250604051806040016040528060048152602001631352539560e21b81525081600090816200005d91906200011a565b5060016200006c82826200011a565b505050620001e6565b634e487b7160e01b600052604160045260246000fd5b600181811c90821680620000a057607f821691505b602082108103620000c157634e487b7160e01b600052602260045260246000fd5b50919050565b601f8211156200011557600081815260208120601f850160051c81016020861015620000f05750805b601f850160051c820191505b818110156200011157828155600101620000fc565b5050505b505050565b81516001600160401b0381111562000136576200013662000075565b6200014e816200014784546200008b565b84620000c7565b602080601f8311600181146200018657600084156200016d5750858301515b600019600386901b1c1916600185901b17855562000111565b600085815260208120601f198616915b82811015620001b75788860151825594840194600190910190840162000196565b5085821015620001d65787850151600019600388901b60f8161c191681555b5050505050600190811b01905550565b6114b380620001f66000396000f3fe608060405234801561001057600080fd5b50600436106100ea5760003560e01c806370a082311161008c578063a22cb46511610066578063a22cb465146101e1578063b88d4fde146101f4578063c87b56dd14610207578063e985e9c51461021a57600080fd5b806370a08231146101a557806395d89b41146101c657806399071190146101ce57600080fd5b8063095ea7b3116100c8578063095ea7b31461015757806323b872dd1461016c57806342842e0e1461017f5780636352211e1461019257600080fd5b806301ffc9a7146100ef57806306fdde0314610117578063081812fc1461012c575b600080fd5b6101026100fd366004610e7d565b61022d565b60405190151581526020015b60405180910390f35b61011f61027f565b60405161010e9190610ee7565b61013f61013a366004610efa565b610311565b6040516001600160a01b03909116815260200161010e565b61016a610165366004610f2f565b610338565b005b61016a61017a366004610f59565b610452565b61016a61018d366004610f59565b610483565b61013f6101a0366004610efa565b61049e565b6101b86101b3366004610f95565b6104fe565b60405190815260200161010e565b61011f610584565b61016a6101dc36600461105c565b610593565b61016a6101ef3660046110d0565b61063d565b61016a61020236600461110c565b61064c565b61011f610215366004610efa565b610684565b610102610228366004611188565b610729565b60006001600160e01b031982166380ac58cd60e01b148061025e57506001600160e01b03198216635b5e139f60e01b145b8061027957506301ffc9a760e01b6001600160e01b03198316145b92915050565b60606000805461028e906111bb565b80601f01602080910402602001604051908101604052809291908181526020018280546102ba906111bb565b80156103075780601f106102dc57610100808354040283529160200191610307565b820191906000526020600020905b8154815290600101906020018083116102ea57829003601f168201915b5050505050905090565b600061031c82610757565b506000908152600460205260409020546001600160a01b031690565b60006103438261049e565b9050806001600160a01b0316836001600160a01b0316036103b55760405162461bcd60e51b815260206004820152602160248201527f4552433732313a20617070726f76616c20746f2063757272656e74206f776e656044820152603960f91b60648201526084015b60405180910390fd5b336001600160a01b03821614806103d157506103d18133610729565b6104435760405162461bcd60e51b815260206004820152603d60248201527f4552433732313a20617070726f76652063616c6c6572206973206e6f7420746f60448201527f6b656e206f776e6572206f7220617070726f76656420666f7220616c6c00000060648201526084016103ac565b61044d83836107b9565b505050565b61045c3382610827565b6104785760405162461bcd60e51b81526004016103ac906111f5565b61044d838383610886565b61044d8383836040518060200160405280600081525061064c565b6000818152600260205260408120546001600160a01b0316806102795760405162461bcd60e51b8152602060048201526018602482015277115490cdcc8c4e881a5b9d985b1a59081d1bdad95b88125160421b60448201526064016103ac565b60006001600160a01b0382166105685760405162461bcd60e51b815260206004820152602960248201527f4552433732313a2061646472657373207a65726f206973206e6f7420612076616044820152683634b21037bbb732b960b91b60648201526084016103ac565b506001600160a01b031660009081526003602052604090205490565b60606001805461028e906111bb565b6105a1600780546001019055565b60006105ac60075490565b600081815260086020526040902080546001600160a01b0319166001600160a01b03871617905590506105df84826109f7565b60408051606081018252828152602080820186815282840186905260008581526009909252929020815181559151909190600182019061061f9082611290565b50604082015160028201906106349082611290565b50505050505050565b610648338383610a11565b5050565b6106563383610827565b6106725760405162461bcd60e51b81526004016103ac906111f5565b61067e84848484610adf565b50505050565b60008181526009602052604090206002018054606091906106a4906111bb565b80601f01602080910402602001604051908101604052809291908181526020018280546106d0906111bb565b801561071d5780601f106106f25761010080835404028352916020019161071d565b820191906000526020600020905b81548152906001019060200180831161070057829003601f168201915b50505050509050919050565b6001600160a01b03918216600090815260056020908152604080832093909416825291909152205460ff1690565b6000818152600260205260409020546001600160a01b03166107b65760405162461bcd60e51b8152602060048201526018602482015277115490cdcc8c4e881a5b9d985b1a59081d1bdad95b88125160421b60448201526064016103ac565b50565b600081815260046020526040902080546001600160a01b0319166001600160a01b03841690811790915581906107ee8261049e565b6001600160a01b03167f8c5be1e5ebec7d5bd14f71427d1e84f3dd0314c0f7b2291e5b200ac8c7c3b92560405160405180910390a45050565b6000806108338361049e565b9050806001600160a01b0316846001600160a01b0316148061085a575061085a8185610729565b8061087e5750836001600160a01b031661087384610311565b6001600160a01b0316145b949350505050565b826001600160a01b03166108998261049e565b6001600160a01b0316146108bf5760405162461bcd60e51b81526004016103ac90611350565b6001600160a01b0382166109215760405162461bcd60e51b8152602060048201526024808201527f4552433732313a207472616e7366657220746f20746865207a65726f206164646044820152637265737360e01b60648201526084016103ac565b61092e8383836001610b12565b826001600160a01b03166109418261049e565b6001600160a01b0316146109675760405162461bcd60e51b81526004016103ac90611350565b600081815260046020908152604080832080546001600160a01b03199081169091556001600160a01b0387811680865260038552838620805460001901905590871680865283862080546001019055868652600290945282852080549092168417909155905184937fddf252ad1be2c89b69c2b068fc378daa952ba7f163c4a11628f55a4df523b3ef91a4505050565b610648828260405180602001604052806000815250610b9a565b816001600160a01b0316836001600160a01b031603610a725760405162461bcd60e51b815260206004820152601960248201527f4552433732313a20617070726f766520746f2063616c6c65720000000000000060448201526064016103ac565b6001600160a01b03838116600081815260056020908152604080832094871680845294825291829020805460ff191686151590811790915591519182527f17307eab39ab6107e8899845ad3d59bd9653f200f220920489ca2b5937696c31910160405180910390a3505050565b610aea848484610886565b610af684848484610bcd565b61067e5760405162461bcd60e51b81526004016103ac90611395565b600181111561067e576001600160a01b03841615610b58576001600160a01b03841660009081526003602052604081208054839290610b529084906113fd565b90915550505b6001600160a01b0383161561067e576001600160a01b03831660009081526003602052604081208054839290610b8f908490611410565b909155505050505050565b610ba48383610cce565b610bb16000848484610bcd565b61044d5760405162461bcd60e51b81526004016103ac90611395565b60006001600160a01b0384163b15610cc357604051630a85bd0160e11b81526001600160a01b0385169063150b7a0290610c11903390899088908890600401611423565b6020604051808303816000875af1925050508015610c4c575060408051601f3d908101601f19168201909252610c4991810190611460565b60015b610ca9573d808015610c7a576040519150601f19603f3d011682016040523d82523d6000602084013e610c7f565b606091505b508051600003610ca15760405162461bcd60e51b81526004016103ac90611395565b805181602001fd5b6001600160e01b031916630a85bd0160e11b14905061087e565b506001949350505050565b6001600160a01b038216610d245760405162461bcd60e51b815260206004820181905260248201527f4552433732313a206d696e7420746f20746865207a65726f206164647265737360448201526064016103ac565b6000818152600260205260409020546001600160a01b031615610d895760405162461bcd60e51b815260206004820152601c60248201527f4552433732313a20746f6b656e20616c7265616479206d696e7465640000000060448201526064016103ac565b610d97600083836001610b12565b6000818152600260205260409020546001600160a01b031615610dfc5760405162461bcd60e51b815260206004820152601c60248201527f4552433732313a20746f6b656e20616c7265616479206d696e7465640000000060448201526064016103ac565b6001600160a01b038216600081815260036020908152604080832080546001019055848352600290915280822080546001600160a01b0319168417905551839291907fddf252ad1be2c89b69c2b068fc378daa952ba7f163c4a11628f55a4df523b3ef908290a45050565b6001600160e01b0319811681146107b657600080fd5b600060208284031215610e8f57600080fd5b8135610e9a81610e67565b9392505050565b6000815180845260005b81811015610ec757602081850181015186830182015201610eab565b506000602082860101526020601f19601f83011685010191505092915050565b602081526000610e9a6020830184610ea1565b600060208284031215610f0c57600080fd5b5035919050565b80356001600160a01b0381168114610f2a57600080fd5b919050565b60008060408385031215610f4257600080fd5b610f4b83610f13565b946020939093013593505050565b600080600060608486031215610f6e57600080fd5b610f7784610f13565b9250610f8560208501610f13565b9150604084013590509250925092565b600060208284031215610fa757600080fd5b610e9a82610f13565b634e487b7160e01b600052604160045260246000fd5b600067ffffffffffffffff80841115610fe157610fe1610fb0565b604051601f8501601f19908116603f0116810190828211818310171561100957611009610fb0565b8160405280935085815286868601111561102257600080fd5b858560208301376000602087830101525050509392505050565b600082601f83011261104d57600080fd5b610e9a83833560208501610fc6565b60008060006060848603121561107157600080fd5b61107a84610f13565b9250602084013567ffffffffffffffff8082111561109757600080fd5b6110a38783880161103c565b935060408601359150808211156110b957600080fd5b506110c68682870161103c565b9150509250925092565b600080604083850312156110e357600080fd5b6110ec83610f13565b91506020830135801515811461110157600080fd5b809150509250929050565b6000806000806080858703121561112257600080fd5b61112b85610f13565b935061113960208601610f13565b925060408501359150606085013567ffffffffffffffff81111561115c57600080fd5b8501601f8101871361116d57600080fd5b61117c87823560208401610fc6565b91505092959194509250565b6000806040838503121561119b57600080fd5b6111a483610f13565b91506111b260208401610f13565b90509250929050565b600181811c908216806111cf57607f821691505b6020821081036111ef57634e487b7160e01b600052602260045260246000fd5b50919050565b6020808252602d908201527f4552433732313a2063616c6c6572206973206e6f7420746f6b656e206f776e6560408201526c1c881bdc88185c1c1c9bdd9959609a1b606082015260800190565b601f82111561044d57600081815260208120601f850160051c810160208610156112695750805b601f850160051c820191505b8181101561128857828155600101611275565b505050505050565b815167ffffffffffffffff8111156112aa576112aa610fb0565b6112be816112b884546111bb565b84611242565b602080601f8311600181146112f357600084156112db5750858301515b600019600386901b1c1916600185901b178555611288565b600085815260208120601f198616915b8281101561132257888601518255948401946001909101908401611303565b50858210156113405787850151600019600388901b60f8161c191681555b5050505050600190811b01905550565b60208082526025908201527f4552433732313a207472616e736665722066726f6d20696e636f72726563742060408201526437bbb732b960d91b606082015260800190565b60208082526032908201527f4552433732313a207472616e7366657220746f206e6f6e20455243373231526560408201527131b2b4bb32b91034b6b83632b6b2b73a32b960711b606082015260800190565b634e487b7160e01b600052601160045260246000fd5b81810381811115610279576102796113e7565b80820180821115610279576102796113e7565b6001600160a01b038581168252841660208201526040810183905260806060820181905260009061145690830184610ea1565b9695505050505050565b60006020828403121561147257600080fd5b8151610e9a81610e6756fea26469706673582212206c07ac266b8dbb23c7d0430efdacab21a42417863e8ce18a8d52c01538d79b2664736f6c63430008110033",
  "linkReferences": {},
  "deployedLinkReferences": {}
}